:100000000C9434000C945A000C945A000C945A002E
:100010000C945A000C945A000C94D4000C945A007E
:100020000C945A000C945A000C945A000C94FE0440
:100030000C945A000C945A000C9491070C945A009A
:100040000C945A000C945A000C945A000C945A00C8
:100050000C945A000C945A000C945A000C942005ED
:100060000C945A000C945A0011241FBECFEFD8E014
:10007000DEBFCDBF14BE88E10FB6F8948093600058
:10008000109260000FBE12E0A0E0B1E0EEE8FAE2EC
:1000900002C005900D92A631B107D9F712E0A6E192
:1000A000B2E001C01D92AF37B107E1F70E946700CF
:1000B0000C9445150C940000FA0181E090E09093B7
:1000C000170280931602808180931F0208950E9478
:1000D00009088CE590E0909301018093000182EB88
:1000E00090E068E770E00E94A80A80E090E0089540
:1000F0008091160290911702019709F0089580915E
:100100001F02823009F18330B8F08430E9F0843086
:10011000F8F481E00E94DE0488EC90E00E94E800A0
:1001200080E00E94DE0484E690E00E94E8001092E5
:100130001702109216020895882359F3813071F046
:1001400085E10E94DE04E8CF84E10E94DE04E4CF72
:100150008530B1F780E10E94DE04DECF84E00E94AA
:10016000DE04DACF81E00E94DE0488EC90E00E9499
:10017000E80084E00E94DE0488EC90E00E94E80041
:1001800080E10E94DE0488EC90E00E94E80080E0BC
:100190000E94DE0488EC90E00E94E8000895089533
:1001A00080E090E0089508951F920F920FB60F928D
:1001B00011248F9388E10FB6F89480936000109219
:1001C00060000FBE8F910F900FBE0F901F9018957B
:1001D000009739F020ED37E0F9013197F1F70197F9
:1001E000D9F708958093B3006093B40008958FEF1A
:1001F0008093B3008093B40080ED97E0FC013197C9
:10020000F1F7FC013197F1F7FC013197F1F7FC01AF
:100210003197F1F7FC013197F1F7FC013197F1F7D4
:10022000FC013197F1F7FC013197F1F7FC013197AF
:10023000F1F7FC013197F1F7FC013197F1F7FC017F
:100240003197F1F7FC013197F1F7FC013197F1F7A4
:100250000197F1F70895809147028823F9F4F89403
:1002600087E080937C0083E880937A0080917A0015
:10027000806480937A0080917A0086FDFCCF209183
:1002800078003091790010927C0083EA80937A00A4
:1002900081E080937B007894C90108952FEF3FEFB0
:1002A000C9010895809147028823F9F4F89488ECF5
:1002B00080937C0087E880937A0080917A00806444
:1002C00080937A0080917A0086FDFCCF209178009F
:1002D0003091790010927C0083EA80937A0081E06B
:1002E00080937B007894C90108952FEF3FEFC901F7
:1002F0000895CF93DF93B0E060E070E0F3EAA1E00F
:1003000056E0E3E8C1E0D0E020E030E0F89450931C
:100310007C00E0937A0080917A00806480937A0078
:1003200080917A0086FDFCCF8091780090917900D1
:10033000482F417080917A00806480937A00809188
:100340007A0086FDFCCF8091780090917900109220
:100350007C00F0937A00A0937B007894817048171A
:1003600029F42F5F3F4F2038310581F6442341F0B7
:10037000CE01062E02C0880F991F0A94E2F7B82B0F
:100380006F5F7F4F6830710509F0BECF8B2FDF9113
:10039000CF91089580910801982F990F990F990F87
:1003A000982720911C02822F869586958927929501
:1003B000969597708927809308012F5F20931C02E0
:1003C0000895809308010895809147028823B9F425
:1003D000F89486E080937C0083E880937A00809193
:1003E0007A00806480937A0080917A0086FDFCCF49
:1003F00020917800309179007894C90108952FEF09
:100400003FEFC901089580917B0208952F923F929A
:100410004F925F926F927F928F929F92AF92BF9214
:10042000CF92DF92EF92FF920F931F93DF93CF93C0
:1004300000D000D00F92CDB7DEB71C01DC011296C0
:100440004D905C901397B4E84B16B3E05B060CF448
:100450009DC0EFEFED83BDEB4B16B2E05B06D4F42D
:100460008D818F5D0F900F900F900F900F90CF9117
:10047000DF911F910F91FF90EF90DF90CF90BF9091
:10048000AF909F908F907F906F905F904F903F9034
:100490002F900895F101008111818091480290917F
:1004A00049028017910708F443C1E0904A02F09096
:1004B0004B02E016F10608F415C2E0904C02F090F1
:1004C0004D02E016F10608F416C2E0904E02F090DC
:1004D0004F02E016F10608F417C2E0905002F090C7
:1004E0005102E016F10608F418C2E0905202F090B2
:1004F0005302E016F10608F46EC1E0905402F09049
:100500005502E016F10608F411C2E0905602F09090
:100510005702E016F10608F412C2E0905802F0907B
:100520005902E016F10608F413C2E0905A02F09066
:100530005B02E016F10608F414C2E0905C02F09051
:100540005D02E016F10608F415C2E0905E02F0903C
:100550005F02E016F10608F41AC2E0906002F09023
:100560006102E016F10608F41BC2E0906202F0900E
:100570006302E016F10608F41CC28AE5382E2D81CC
:100580002F3F09F0DAC0832D8F5D6CCF809121025F
:10059000909122028415950508F4C8C0E0902302CA
:1005A000F0902402E414F50408F4A1C1E0902502BF
:1005B000F0902602E414F50408F4A2C1E0902702AA
:1005C000F0902802E414F50408F4A3C1E090290295
:1005D000F0902A02E414F50408F4A4C1E0902B0280
:1005E000F0902C02E414F50408F460C1E0902D02B0
:1005F000F0902E02E414F50408F49DC1E0902F025F
:10060000F0903002E414F50408F49EC1E090310249
:10061000F0903202E414F50408F49FC1E090330234
:10062000F0903402E414F50408F4A0C1E09035021F
:10063000F0903602E414F50408F4A1C1E09037020A
:10064000F0903802E414F50408F49DC1E0903902FA
:10065000F0903A02E414F50408F49EC1E0903B02E5
:10066000F0903C02E414F50408F49FC10CE010E0A3
:1006700080E090E0A0EDB0E489839A83AB83BC83F3
:10068000000F111F0F5D1D4FD8018D919C91B70177
:10069000681B790B80E090E00E94A6119B01AC01E1
:1006A0000E94F10E3B014C01B201882777FD809535
:1006B000982F0E94F4105B016C01B70180E090E07C
:1006C0000E94A6117B018C01C401B30129813A81EA
:1006D0004B815C810E941E0F9B01AC01C801B701D8
:1006E0000E94C00E9B01AC01C601B5010E94C00E64
:1006F00020E030E040E251E40E941E0F0E945211BF
:100700007B018C01C401B3010E9452119B01AC0119
:10071000C701B9010E943314882777FD8095982F6F
:100720000E94F4100E94480D6D8395CE1D8293CED9
:1007300033242D812F3F09F426CFB201882777FD7E
:100740008095982F0E94F4105B016C01AD816A2F97
:1007500070E080E090E00E94A6117B018C0160E0D7
:1007600070E081E694E4A60195010E94C00E9B0111
:10077000AC01C801B7010E941E0F3B014C01632D63
:1007800070E080E090E00E94A6117B018C01C60120
:10079000B50120E030E04FE254E40E94C00E9B011E
:1007A000AC01C801B7010E941E0F9B01AC01C4013E
:1007B000B3010E94F10E20E030E048E453E40E94CF
:1007C000181020E030E044E052E40E94F10E0E9454
:1007D000480D862F47CEA5E03A2EE5E0F0E0EE0F7B
:1007E000FF1FEA5BFD4F80819181B701681B790B88
:1007F00080E090E00E94A6119B01AC010E94F10EE6
:100800003B014C01B801882777FD8095982F0E9405
:10081000F4105B016C01B70180E090E00E94A6112A
:100820007B018C01632D70E080E090E00E94A611B6
:1008300020E030E040E05FE30E941E0F20E030E067
:1008400040E050E00E94F10EA40193010E941E0FAF
:100850009B01AC01C801B7010E94C00E9B01AC0115
:10086000C601B5010E94C00E20E030E040E251E434
:100870000E941E0F0E9452117B018C01C401B30122
:100880000E9452119B01AC01C701B9010E943314AF
:10089000882777FD8095982F0E94F4100E94480DBC
:1008A000362EFFEF6F1709F044CFDACD85E090E0E8
:1008B00065E08C010150104070E080E090E00E9403
:1008C000A61120E030E040E05FE30E941E0F20E030
:1008D00030E040E050E00E94F10E69837A838B8320
:1008E0009C83CECE33243394E1E0F0E078CF81E0F6
:1008F00090E061E0DECF92E0392EE2E0F0E06FCFF1
:1009000082E090E062E0D5CF83E0382EE3E0F0E0D3
:1009100066CF83E090E063E0CCCFB4E03B2EE4E030
:10092000F0E05DCF84E090E064E0C3CFF6E03F2EDE
:10093000E6E0F0E054CF86E090E066E0BACFE7E092
:100940003E2EE7E0F0E04BCF87E090E067E0B1CFEC
:1009500078E0372EE8E0F0E042CF88E090E068E011
:10096000A8CF69E0362EE9E0F0E039CF89E090E0E9
:1009700069E09FCF5AE0352EEAE0F0E030CF8AE020
:1009800090E06AE096CF8BE090E06BE092CF4BE096
:10099000342EEBE0F0E023CF8CE090E06CE089CFE8
:1009A0003CE0332EECE0F0E01ACF8DE090E06DE01B
:1009B00080CF2DE0322EEDE0F0E011CF282F30E097
:1009C000C90183709070892BB1F45098C9018C7063
:1009D0009070892B39F4519820733070232B41F497
:1009E00052980895519A599A20733070232BC1F36D
:1009F000529A5A9A0895509A589AE8CF1F920F9295
:100A00000FB60F9211248F939F9310928100109232
:100A100085001092840091E09093200290936402EC
:100A20001092470210927C0083EA80937A009093A0
:100A30007B009F918F910F900FBE0F901F90189584
:100A40001F920F920FB60F9211240F931F932F93A3
:100A50003F934F935F936F937F938F939F93AF9346
:100A6000BF93EF93FF9384B1897B84B96091840035
:100A70007091850093B101E00093470280912002BC
:100A80008823D9F1892F90E0867490708630910583
:100A900009F4F7C0873091050CF0C0C08230910591
:100AA00009F406C1049709F400C186E080937B0233
:100AB000109285001092840081E080938100109252
:100AC00078021092200280916402882309F493C076
:100AD00080917A0086FDFCCF80917800909179001A
:100AE000909342028093410291E090937C0083EACC
:100AF00080937A0090937B007EC0CB018758904012
:100B00008457994008F064C06658704080E090E0D7
:100B100024EF30E040E050E00E941414BC0188272C
:100B20009927683008F4B4C00093200280916402D1
:100B3000882309F083C080913E02E0910601F09184
:100B40000701E80FF11D80917802808380913E02B9
:100B50008F5F80933E028C3009F04DC0109281006F
:100B60001092850010928400009364021092470254
:100B700000917402109175028AE692E00E940C0CBA
:100B800008171907C1F59091730297FFA7C0892F25
:100B90008858833030F0539823981092B400109204
:100BA000B300963809F410C1973808F0A3C0933801
:100BB00009F40EC1943808F0A6C09038E1F4809191
:100BC0006E008D7F80936E0016BCE0E0F0E7099523
:100BD00010928100109285001092840000932002F0
:100BE000009364021092470210927C0083EA809383
:100BF0007A0000937B00FF91EF91BF91AF919F919D
:100C00008F917F916F915F914F913F912F911F91A4
:100C10000F910F900FBE0F901F9018958234910581
:100C200009F450C08434910509F446C0803491051C
:100C300009F03BCF85E080937B023ACF80917A0028
:100C400086FDFCCF809178009091790090934002CE
:100C500080933F0210927C0083EA80937A0091E0B7
:100C600090937B0080917802882399F11092810003
:100C700010928500109284009093640210924702B3
:100C8000BACF82E080937B0285E10E94DE0410CF20
:100C900081E090E002C0880F991F6A95E2F72091E9
:100CA0007802282B20937802A6CF00937B0200CFF6
:100CB00083E080937B02FCCE10927B0281E00E9455
:100CC000DE04F6CE84E080937B0280E10E94DE04A5
:100CD000EFCE1092640210923E028DCFE09100019F
:100CE000F09101018AE692E06FE372E04BE752E097
:100CF000099581CF983809F46EC0983870F482E075
:100D000080931D0278CF943809F479C0953809F0A2
:100D100072CF81E080931D026ECF993809F498C09C
:100D20009A3809F068CF80916A02823009F4BEC017
:100D3000833008F074C0882309F064C080911D02DC
:100D4000863009F058CF80EB90E0609179020E94E4
:100D5000FA1460917A0281EB90E00E94FA1485E027
:100D600090E060917E020E94FA1489E090E0609128
:100D700069020E94FA148CE090E060917C020E946B
:100D8000FA1484E190E060917D020E94FA14539875
:100D900023981092B4001092B30081E080931D025A
:100DA00080916A02882309F426CF80911D02863043
:100DB00009F421CF539A239A1092B4001092B300F1
:100DC00086E080931D0217CF85E080931D0213CF2C
:100DD000E0E0F0E0099580911D02833009F40BCF2B
:100DE00080911D02843009F406CF539A239A109201
:100DF000B4001092B30083E080931D02FCCE1092E9
:100E00001D02F9CE813071F680916B0290916C02D7
:100E100090937A028093790210921A02C6CF83309F
:100E200009F45BC0843009F0BDCF80911A02833091
:100E300009F44AC02091700290916F0210921B0237
:100E400083E080931A0290937C0220937D02ADCFC1
:100E500080911D02863091F0539A239A1092B4002B
:100E60001092B30080E00E94DE0410921A0280917A
:100E70001A0280931B0286E080931D0281E090E0BD
:100E800000906A0202C0880F991F0A94E2F720912D
:100E9000790230917A0282239323892B19F41092DC
:100EA0001A02A9CE81E080931A02A5CE80911A027F
:100EB000813009F190916D0210921B0281E08093C4
:100EC0001A0290937E0271CF2091700280917D0270
:100ED0002817C1F090916F02B1CF80911A02823031
:100EE000C9F090916E0210921B0282E080931A0268
:100EF000909369025ACF90916D0280917E0298176B
:100F0000D9F653CF90916F0280917C02981709F027
:100F100095CF4BCF90916E0280916902981719F787
:100F200044CF1F920F920FB60F9211242F933F932D
:100F30004F935F936F937F938F939F93AF93BF93E1
:100F4000EF93FF93209165023091660280916702D2
:100F500090916802280F391F30936802209367022E
:100F60008FEF90E090936602809365028FEF87BDCC
:100F70008091430290914402A0914502B0914602B3
:100F80000196A11DB11D8093430290934402A0934A
:100F90004502B093460280914702882359F480911C
:100FA0007602909177028217930720F480911D02B8
:100FB000843089F0FF91EF91BF91AF919F918F9114
:100FC0007F916F915F914F913F912F910F900FBE45
:100FD0000F901F901895E0910201F091030109957F
:100FE000009741F30E94C50C882349F40E94E21443
:100FF00090E0909366028093650287BDDBCFE0911D
:101000000401F0910501099510926802109267029F
:10101000D1CF0F931F93F89414B817B81AB815B816
:1010200018B81BB8529A5A9A14BC85E085BD8FEF48
:1010300087BD22E020936E00109280001092810004
:101040008FE89BE0909389008093880020936F0045
:101050005398239881EA8093B0002093B1001092B6
:10106000B4001092B3008BE080BF83E080937F00D8
:1010700086E080937C0083E880937A0080917A00F8
:10108000806480937A0080917A0086FDFCCF109274
:101090007C0083EA80937A0081E080937B0081E08A
:1010A00090E00E94F2148F3F11F08093660010923E
:1010B000470281E0809320028093640210923E02F6
:1010C0001092780280933D0210926802109267029B
:1010D0008FEF90E090936602809365021092430236
:1010E00010924402109245021092460283E08093CF
:1010F0001D0282E49FE0909377028093760280EB5A
:1011000090E00E94F214082F81EB90E00E94F2140C
:10111000382F20E010E0202B312B30937A022093DF
:10112000790285E090E00E94F21480937E0289E0CB
:1011300090E00E94F214809369028CE090E00E949B
:10114000F21480937C0284E190E00E94F214809378
:101150007D0280E290E00E94F214182F81E290E07C
:101160000E94F214312F20E090E0282B392B30938D
:1011700049022093480280E590E00E94F214182F63
:1011800081E590E00E94F214312F20E090E0282BBE
:10119000392B309322022093210282E290E00E94B8
:1011A000F214182F83E290E00E94F214312F20E015
:1011B00090E0282B392B30934B0220934A0282E592
:1011C00090E00E94F214182F83E590E00E94F21440
:1011D000312F20E090E0282B392B309324022093EC
:1011E000230284E290E00E94F214182F85E290E03E
:1011F0000E94F214312F20E090E0282B392B3093FD
:101200004D0220934C0284E590E00E94F214182FC6
:1012100085E590E00E94F214312F20E090E0282B29
:10122000392B309326022093250286E290E00E941B
:10123000F214182F87E290E00E94F214312F20E080
:1012400090E0282B392B30934F0220934E0286E5F5
:1012500090E00E94F214182F87E590E00E94F214AB
:10126000312F20E090E0282B392B30932802209357
:10127000270288E290E00E94F214182F89E290E0A1
:101280000E94F214312F20E090E0282B392B30936C
:1012900051022093500288E590E00E94F214182F2A
:1012A00089E590E00E94F214312F20E090E0282B95
:1012B000392B30932A02209329028AE290E00E947F
:1012C000F214182F8BE290E00E94F214312F20E0EC
:1012D00090E0282B392B30935302209352028AE559
:1012E00090E00E94F214182F8BE590E00E94F21417
:1012F000312F20E090E0282B392B30932C022093C3
:101300002B028CE290E00E94F214182F8DE290E004
:101310000E94F214312F20E090E0282B392B3093DB
:101320005502209354028CE590E00E94F214182F8D
:101330008DE590E00E94F214312F20E090E0282B00
:10134000392B30932E0220932D028EE290E00E94E2
:10135000F214182F8FE290E00E94F214312F20E057
:1013600090E0282B392B30935702209356028EE5BC
:1013700090E00E94F214182F8FE590E00E94F21482
:10138000312F20E090E0282B392B3093300220932E
:101390002F0280E390E00E94F214182F81E390E086
:1013A0000E94F214312F20E090E0282B392B30934B
:1013B00059022093580280E690E00E94F214182F00
:1013C00081E690E00E94F214312F20E090E0282B7B
:1013D000392B309332022093310282E390E00E9455
:1013E000F214182F83E390E00E94F214312F20E0D2
:1013F00090E0282B392B30935B0220935A0282E62F
:1014000090E00E94F214182F83E690E00E94F214FC
:10141000312F20E090E0282B392B30933402209399
:10142000330284E390E00E94F214182F85E390E0E9
:101430000E94F214312F20E090E0282B392B3093BA
:101440005D0220935C0284E690E00E94F214182F63
:1014500085E690E00E94F214312F20E090E0282BE6
:10146000392B309336022093350286E390E00E94B8
:10147000F214182F87E390E00E94F214312F20E03D
:1014800090E0282B392B30935F0220935E0286E692
:1014900090E00E94F214182F87E690E00E94F21468
:1014A000312F20E090E0282B392B30933802209305
:1014B000370288E390E00E94F214182F89E390E04D
:1014C0000E94F214312F20E090E0282B392B30932A
:1014D00061022093600288E690E00E94F214182FC7
:1014E00089E690E00E94F214312F20E090E0282B52
:1014F000392B30933A02209339028AE390E00E941C
:10150000F214182F8BE390E00E94F214312F20E0A8
:1015100090E0282B392B30936302209362028AE6F5
:1015200090E00E94F214182F8BE690E00E94F214D3
:10153000312F20E090E0282B392B30933C02209370
:101540003B0286E080937B0278941F910F9108956F
:101550002F923F924F925F926F927F928F929F92C3
:10156000AF92BF92CF92DF92EF92FF920F931F93B1
:10157000CF93DF936C018B01FF24A0EDAA2EA7E08F
:10158000BA2EC8ECD0E0EE24EA94F0E38F2EF5E713
:101590009F2EE6E07E2E73E8672E68E1462E512CE2
:1015A00059E2352E44E0242E80911D02833069F1EA
:1015B0008430A8F5813009F4BCC0823008F45AC0E8
:1015C00080914702882309F0F4C0F89470927C005F
:1015D00060927A0080917A00806480937A00809192
:1015E0007A0086FDFCCF20917800309179007894C4
:1015F00042E02B3A34070CF4E1C05098519A599AC2
:10160000529880911D02833099F6FF2009F4CEC0D4
:1016100020921D02FF24F394F8010995C5CF85306F
:1016200089F08530C8F3863009F0BECF80911A0268
:10163000882309F094C01092B3001092B400109265
:101640001B02B2CF48995EC0509A589A519852984E
:10165000C5010197F1F750985198529820E030E079
:10166000CE010197F1F72F5F3F4F87E0203D38070C
:10167000B9F79ACFF89480B7877F80BF80917A00BE
:101680008F7780937A0014B817B81AB815B818B8BD
:101690001BB80FB6F894A895409260000FBE309228
:1016A00060008091600080648093600083B7817FD8
:1016B000846083BFF89483B7816083BF78948895F2
:1016C00083B78E7F83BF789410924702529A5A9ABA
:1016D00080917A00806880937A0088E592E0019793
:1016E000F1F780B7886180BF509A589A519A599AF9
:1016F000529A5A9A80E29EE40197F1F7809147024C
:10170000882321F45098519852984ECF509A589A65
:101710005198529820E030E0CE010197F1F72F5F09
:101720003F4F43E0283E3407B9F7509851985298FC
:101730003BCF5098519A599A5298C5010197F1F7A9
:1017400050985198529820E030E0CE010197F1F77F
:101750002F5F3F4F87E0203D3807B9F725CF9091A5
:101760001A0280911B02981709F41ECF80911A0269
:1017700080931B0280911A02813049F180911A02F4
:10178000823099F11092B300E092B400E092B3007D
:10179000E092B400C4010197F1F780917C0290912E
:1017A0007D028093B3009093B400FECEF6010995BC
:1017B0002FCF509A589A51985298F6CE82E02938F5
:1017C00038070CF150985198529A5A9AEDCEE092FF
:1017D000B3001092B400C4010197F1F780917E022A
:1017E0008093B3001092B400DFCE1092B300E09269
:1017F000B400C4010197F1F7809169021092B3001F
:101800008093B400D1CE275632409CF2509A589A19
:10181000519A599A5298C8CEFC0180812FEF3FEF20
:101820002827022E2295207F2025032E322F229555
:101830002F700226269532272327220F220F220FF0
:10184000202581812827022E2295207F2025032E06
:10185000322F22952F700226269532272327220F1A
:10186000220F220F202582812827022E2295207FF9
:101870002025032E322F22952F70022626953227FF
:101880002327220F220F220F202583812827022EB3
:101890002295207F2025032E322F22952F7002269D
:1018A000269532272327220F220F220F20258481FD
:1018B0002827022E2295207F2025032E322F2295C5
:1018C0002F700226269532272327220F220F220F60
:1018D000202585812827022E2295207F2025032E72
:1018E000322F22952F700226269532272327220F8A
:1018F000220F220F202586812827022E2295207F65
:101900002025032E322F22952F700226269532276E
:101910002327220F220F220F202587812827022E1E
:101920002295207F2025032E322F22952F7002260C
:10193000269532272327220F220F220F202580856C
:101940002827022E2295207F2025032E322F229534
:101950002F700226269532272327220F220F220FCF
:10196000202581852827022E2295207F2025032EE1
:10197000322F22952F700226269532272327220FF9
:10198000220F220F2025C90108950FB6F894A4B1A3
:1019900020913D022A2B24B921E030913D022030D4
:1019A00029F0000025B1232B25B904C00000000058
:1019B000000000C0000000000000309525B1232386
:1019C00025B92EEA2A95F1F72BEE30B735FF0AC07C
:1019D000A4B930913D02309525B1232325B90FBE1E
:1019E00080E0089500002A9581F721E030913D02C2
:1019F000203029F0000025B1232B25B904C00000B8
:101A00000000000000C0000000000000309525B17B
:101A1000232325B9000024E52A95F1F7FC018CE089
:101A2000619170E0660F771F616072609AE041E03B
:101A300050E09A0126233723232B30913D0220309A
:101A400029F0000025B1232B25B904C000000000B7
:101A5000000000C0000000000000309525B12323E5
:101A600025B9000021E52A95F1F7440F551F9A95F5
:101A700001F78A95A9F620B7206120BFA4B930915B
:101A80003D02309525B1232325B90FBE81E008958D
:101A9000EF92FF920F931F937B018C0120E030E0C7
:101AA00040E05FE40E94C41088238CF0C801B701B5
:101AB00020E030E040E05FE40E94C00E0E9452113E
:101AC0009B01AC01205030404040504806C0C80146
:101AD000B7010E9452119B01AC01B901CA011F91CB
:101AE0000F91FF90EF900895A0E0B0E0EAE7FDE0ED
:101AF0000C945A14DC012B01FA019C91923008F4E9
:101B000039C1EB018881823008F433C1943069F423
:101B1000843009F02FC111969C91119789819817F3
:101B200009F428C1A9E0B1E025C1843009F421C13C
:101B30008230A9F4923009F01DC19A01AD0188E00C
:101B4000EA010990AE01E90109929E018150C1F7B5
:101B5000E201898111969C918923818308C1923089
:101B600009F407C112962D903C901397EB018A81DE
:101B70009B811496AD90BD90CD90DC901797EC8032
:101B8000FD800E811F819101281B390BB90137FFA0
:101B900004C066277727621B730B603271050CF057
:101BA00061C0121613066CF537014801062E04C0F9
:101BB00096948794779467940A94D2F721E030E062
:101BC00040E050E004C0220F331F441F551F6A95A8
:101BD000D2F721503040404050402E213F21402339
:101BE0005123211531054105510521F021E030E057
:101BF00040E050E079018A01E628F72808291929F0
:101C00003CC0232BD1F1260E371E35014601062E8E
:101C100004C096948794779467940A94D2F721E04D
:101C200030E040E050E004C0220F331F441F551F36
:101C30006A95D2F721503040404050402A213B2144
:101C40004C215D21211531054105510521F021E08F
:101C500030E040E050E059016A01A628B728C828C2
:101C6000D9280BC0821593052CF01C01AA24BB2493
:101C7000650103C0EE24FF24870111969C91D201D7
:101C800011968C91981709F445C0992339F0A80151
:101C900097012A193B094C095D0906C0A601950167
:101CA0002E193F09400B510B57FD08C0118233829A
:101CB000228224833583468357831DC081E081833C
:101CC0003382228288279927DC01821B930BA40B85
:101CD000B50B84839583A683B7830DC0220F331F72
:101CE000441F551F24833583468357838281938104
:101CF0000197938382832481358146815781DA015C
:101D0000C9010197A109B1098F5F9F4FAF4FBF4331
:101D100028F30BC0918333822282EA0CFB1C0C1D3A
:101D20001D1DE482F5820683178383E0808324816E
:101D300035814681578157FF1AC0C901AA2797FDEF
:101D4000A095BA2F81709070A070B070569547958D
:101D500037952795822B932BA42BB52B84839583C2
:101D6000A683B78382819381019693838283DF0167
:101D700001C0D201CD01CDB7DEB7E2E10C947614FB
:101D8000A0E2B0E0E6ECFEE00C94661469837A838E
:101D90008B839C832D833E834F835887E9E0EE2E0F
:101DA000F12CEC0EFD1ECE010196B7010E944313EB
:101DB0008E010F5E1F4FCE010596B8010E9443139E
:101DC0008A8991E089278A8BC701B801AE01475EF5
:101DD0005F4F0E94740D0E946E12A096E6E00C9474
:101DE0008214A0E2B0E0E7EFFEE00C946614698391
:101DF0007A838B839C832D833E834F835887F9E0BE
:101E0000EF2EF12CEC0EFD1ECE010196B7010E94C3
:101E100043138E010F5E1F4FCE010596B8010E943D
:101E20004313C701B801AE01475E5F4F0E94740DB6
:101E30000E946E12A096E6E00C948214A0E2B0E03C
:101E4000E4E2FFE00C945A1469837A838B839C83C9
:101E50002D833E834F835887CE010196BE01675F75
:101E60007F4F0E944313CE010596BE016F5E7F4FE8
:101E70000E9443139985923088F089898230C8F096
:101E8000943019F4823051F404C0843029F4923033
:101E900081F489E091E0C6C0923049F420E09A854F
:101EA0008A89981321E02A87CE010996BBC0823027
:101EB00049F420E09A858A89981321E02A8BCE0183
:101EC0004196B0C02D843E844F8458886D887E88AA
:101ED0008F88988CEE24FF248701AA24BB246501F7
:101EE00040E050E060E070E0E0E0F0E0C1018170CF
:101EF0009070892BE9F0E60CF71C081D191D9A015A
:101F0000AB012A0D3B1D4C1D5D1D80E090E0A0E063
:101F1000B0E0E614F7040805190520F481E090E02C
:101F2000A0E0B0E0BA01A901480F591F6A1F7B1F4A
:101F3000AA0CBB1CCC1CDD1C97FE08C081E090E005
:101F4000A0E0B0E0A82AB92ACA2ADB2A3196E032FA
:101F5000F10549F0660C771C881C991C569447942F
:101F600037942794C3CFFA85EA892B893C898B85DE
:101F70009C85280F391F2E5F3F4F17C0CA01817003
:101F80009070892B61F016950795F794E79480E09F
:101F900090E0A0E0B0E8E82AF92A0A2B1B2B7695FE
:101FA0006795579547952F5F3F4F77FDE7CF0CC05B
:101FB000440F551F661F771F17FD4160EE0CFF1C75
:101FC000001F111F21503040403090E0590790E031
:101FD000690790E4790760F32B8F3C8FDB01CA011E
:101FE0008F779070A070B07080349105A105B10515
:101FF00061F447FD0AC0E114F1040105110529F05F
:10200000405C5F4F6F4F7F4F40781A8EFE1711F084
:1020100081E08A8F4D8F5E8F6F8F78A383E0898FE9
:10202000CE0149960E946E12A096E2E10C947614BD
:10203000A8E1B0E0EEE1F0E10C94621469837A83E8
:102040008B839C832D833E834F835887B9E0EB2E8F
:10205000F12CEC0EFD1ECE010196B7010E94431338
:102060008E010F5E1F4FCE010596B8010E944313EB
:102070002985223008F47EC03989323010F4B80145
:102080007CC08A859A8989278A87243011F022307A
:1020900031F4231709F06EC069E071E06EC034308E
:1020A00039F41D861E861F86188A1C861B8604C06E
:1020B000323021F484E08987B7015FC02B853C85ED
:1020C0008B899C89281B390B3C872B87ED84FE84E8
:1020D0000F851889AD88BE88CF88D88CEA14FB0498
:1020E0000C051D0540F4EE0CFF1C001F111F2150B4
:1020F00030403C872B8720E030E040E050E080E03B
:1021000090E0A0E0B0E460E070E0EA14FB040C05AD
:102110001D0540F0282B392B4A2B5B2BEA18FB08B6
:102120000C091D09B695A79597958795EE0CFF1C90
:10213000001F111F6F5F7F4F6F31710531F7DA019B
:10214000C9018F779070A070B07080349105A1059F
:10215000B10561F427FD0AC0E114F1040105110580
:1021600029F0205C3F4F4F4F5F4F20782D873E87EF
:102170004F87588BBE01675F7F4FCB010E946E1265
:102180006896EAE00C947E14A8E1B0E0EAECF0E195
:102190000C94661469837A838B839C832D833E839E
:1021A0004F83588789E0E82EF12CEC0EFD1ECE01FE
:1021B0000196B7010E9443138E010F5E1F4FCE019F
:1021C0000596B8010E9443138985823040F08989C1
:1021D000823028F0C701B8010E94BB1301C08FEF05
:1021E0006896E6E00C948214A8E0B0E0EAEFF0E133
:1021F0000C9463149B01AC0183E08983DA01C9016B
:102200008827B7FD83959927AA27BB27B82E2115C4
:1022100031054105510519F482E089833AC08823CC
:10222000A9F0203080E0380780E0480780E85807B0
:1022300029F460E070E080E09FEC30C0EE24FF24E1
:102240008701E21AF30A040B150B02C079018A0117
:102250008EE1C82ED12CDC82CB82ED82FE820F83F0
:102260001887C801B7010E941F1201971816190696
:1022700084F4082E04C0EE0CFF1C001F111F0A94EA
:10228000D2F7ED82FE820F831887C81AD90ADC8242
:10229000CB82BA82CE0101960E946E122896E9E0A6
:1022A0000C947F14ACE0B0E0E8E5F1E10C946A1422
:1022B00069837A838B839C83CE010196BE016B5F19
:1022C0007F4F0E9443138D81823061F1823050F143
:1022D000843021F48E81882351F12EC02F813885DE
:1022E00037FD20C06E812F3131051CF06623F9F0D7
:1022F00023C08EE190E0821B930B29853A854B85A4
:102300005C8504C056954795379527958A95D2F7F1
:102310006623B1F050954095309521953F4F4F4F32
:102320005F4F0EC020E030E040E050E009C02FEFEA
:102330003FEF4FEF5FE704C020E030E040E050E8BF
:10234000B901CA012C96E2E00C948614A8E0B0E032
:10235000ECEAF1E10C9462147B018C0161157105CA
:102360008105910519F482E0898360C083E0898347
:102370008EE1C82ED12CDC82CB82ED82FE820F83CF
:102380001887C801B7010E941F12FC013197F7FF9F
:102390003BC0222733272E1B3F0B57016801022E1B
:1023A00004C0D694C794B794A7940A94D2F740E097
:1023B00050E060E070E081E090E0A0E0B0E004C0B8
:1023C000880F991FAA1FBB1F2A95D2F70197A10951
:1023D000B1098E219F21A023B1230097A105B1054A
:1023E00021F041E050E060E070E04A295B296C296F
:1023F0007D294D835E836F8378878EE190E08E1B0D
:102400009F0B9C838B8312C0309781F00E2E04C0EB
:10241000EE0CFF1C001F111F0A94D2F7ED82FE8202
:102420000F831887CE1ADF0ADC82CB821A82CE0194
:1024300001960E946E122896EAE00C947E14EF92A8
:10244000FF920F931F937B018C0180E0E81680E0E0
:10245000F80681E0080780E0180788F48FEFE81697
:10246000F1040105110531F028F088E090E0A0E0CA
:10247000B0E017C080E090E0A0E0B0E012C080E0E3
:10248000E81680E0F80680E0080781E0180728F0E9
:1024900088E190E0A0E0B0E004C080E190E0A0E03E
:1024A000B0E020E230E040E050E0281B390B4A0B5E
:1024B0005B0B04C016950795F794E7948A95D2F7BD
:1024C000F701EF5EFE4F8081281B31094109510958
:1024D000C9011F910F91FF90EF900895DF92EF9245
:1024E000FF920F931F93FC01E480F5800681178112
:1024F000D1808081823048F480E090E0A0E1B0E0BB
:10250000E82AF92A0A2B1B2BA5C0843009F49FC0A6
:10251000823021F4EE24FF24870105C0E114F10488
:102520000105110519F4E0E0F0E096C062817381C5
:102530009FEF623879070CF05BC022E83FEF261B63
:10254000370B2A3131052CF020E030E040E050E03C
:102550002AC0B801A701022E04C076956795579549
:1025600047950A94D2F781E090E0A0E0B0E004C083
:10257000880F991FAA1FBB1F2A95D2F70197A1099F
:10258000B1098E219F21A023B1230097A105B10598
:1025900021F081E090E0A0E0B0E09A01AB01282BAF
:1025A000392B4A2B5B2BDA01C9018F779070A07011
:1025B000B07080349105A105B10539F427FF09C039
:1025C000205C3F4F4F4F5F4F04C0215C3F4F4F4F48
:1025D0005F4FE0E0F0E02030A0E03A07A0E04A07DB
:1025E000A0E45A0710F0E1E0F0E079018A0127C089
:1025F0006038710564F5FB01E158FF4FD801C70150
:102600008F779070A070B07080349105A105B105EE
:1026100039F4E7FE0DC080E490E0A0E0B0E004C033
:102620008FE390E0A0E0B0E0E80EF91E0A1F1B1F48
:1026300017FF05C016950795F794E794319687E044
:1026400016950795F794E7948A95D1F705C0EE247F
:10265000FF248701EFEFF0E06E2F679566276795FF
:10266000902F9F77D794DD24D7948E2F8695492F6E
:10267000462B582F5D29B701CA011F910F91FF907A
:10268000EF90DF900895FC01DB01408151812281B0
:10269000622F6F7770E0221F2227221F9381892FDC
:1026A000880F822B282F30E0991F9927991F1196A8
:1026B0009C93119721153105A9F541155105610527
:1026C000710511F482E037C082E89FEF13969C9366
:1026D0008E9312979A01AB0167E0220F331F441FBC
:1026E000551F6A95D1F783E08C930DC0220F331FDD
:1026F000441F551F12968D919C9113970197139625
:102700009C938E931297203080E0380780E0480732
:1027100080E4580758F314962D933D934D935C93A2
:10272000179708952F3F310579F44115510561053B
:10273000710519F484E08C93089564FF03C081E06F
:102740008C9312C01C9210C02F57304013963C93AC
:102750002E93129783E08C9387E0440F551F661FDA
:10276000771F8A95D1F7706414964D935D936D939E
:102770007C93179708951F93DC01FB019C91923085
:1027800008F447C08081823008F443C0943051F48B
:1027900011961C91843099F58181682F70E0611B3E
:1027A00071093FC0843021F0923031F48230B9F1A8
:1027B0008181882389F12DC011961C911197823057
:1027C000F1F081811817D9F412962D913C9113974D
:1027D000828193818217930794F028173907BCF000
:1027E00014968D919D910D90BC91A02D24813581E1
:1027F00046815781281739074A075B0718F41123C8
:1028000041F00AC082179307A407B50740F41123CB
:1028100019F061E070E005C06FEF7FEF02C060E08B
:1028200070E0CB011F910895629FD001739FF0016A
:10283000829FE00DF11D649FE00DF11D929FF00D50
:10284000839FF00D749FF00D659FF00D9927729F87
:10285000B00DE11DF91F639FB00DE11DF91FBD0112
:10286000CF011124089597FB092E07260AD077FD82
:1028700004D00CD006D000201AF4709561957F4FDB
:102880000895F6F7909581959F4F0895AA1BBB1B5D
:1028900051E107C0AA1FBB1FA617B70710F0A61B60
:1028A000B70B881F991F5A95A9F780959095BC0181
:1028B000CD0108952F923F924F925F926F927F9237
:1028C0008F929F92AF92BF92CF92DF92EF92FF9240
:1028D0000F931F93CF93DF93CDB7DEB7CA1BDB0BEC
:1028E0000FB6F894DEBF0FBECDBF09942A88398891
:1028F00048885F846E847D848C849B84AA84B98498
:10290000C884DF80EE80FD800C811B81AA81B981A3
:10291000CE0FD11D0FB6F894DEBF0FBECDBFED01B7
:102920000895A0E0B0E0E7E9F4E10C946214EC0152
:10293000A880B980CA80DB80A114B104C104D1048D
:1029400041F484E2A82E89EDB82E8BE5C82E87E0ED
:10295000D82EC601B5012DE133EF41E050E00E94D1
:10296000081527EA31E440E050E00E9414147B018E
:102970008C01C601B5012DE133EF41E050E00E942A
:102980000815CA01B9012CEE34EF4FEF5FEF0E943A
:1029900014146E0D7F1D801F911F97FF04C061509E
:1029A000704080409048688379838A839B839B0131
:1029B0003F77C901CDB7DEB7EAE00C947E140E94E0
:1029C0009114089581E192E00E9491140895A0E08D
:1029D000B0E08093110290931202A0931302B0937F
:1029E00014020895F999FECF92BD81BDF89A9927F6
:1029F00080B50895262FF999FECF1FBA92BD81BDEB
:102A000020BD0FB6F894FA9AF99A0FBE0196089570
:102A100097FB092E05260ED057FD04D014D00AD0FE
:102A2000001C38F450954095309521953F4F4F4FFD
:102A30005F4F0895F6F790958095709561957F4F5B
:102A40008F4F9F4F0895A1E21A2EAA1BBB1BFD01B9
:102A50000DC0AA1FBB1FEE1FFF1FA217B307E4077D
:102A6000F50720F0A21BB30BE40BF50B661F771FD5
:102A7000881F991F1A9469F76095709580959095B5
:0E2A80009B01AC01BD01CF010895F894FFCF7A
:102A8E00CF00D000D3006A02AA00000000000000B0
:102A9E0000000102020303030304040404040404FB
:102AAE0004050505050505050505050505050505C9
:102ABE0005060606060606060606060606060606A9
:102ACE000606060606060606060606060606060698
:102ADE000607070707070707070707070707070779
:102AEE000707070707070707070707070707070768
:102AFE000707070707070707070707070707070758
:102B0E000707070707070707070707070707070747
:102B1E000708080808080808080808080808080828
:102B2E000808080808080808080808080808080817
:102B3E000808080808080808080808080808080807
:102B4E0008080808080808080808080808080808F7
:102B5E0008080808080808080808080808080808E7
:102B6E0008080808080808080808080808080808D7
:102B7E0008080808080808080808080808080808C7
:102B8E0008080808080808080808080808080808B7
:062B9E0008010000000028
:00000001FF
