:100000000C9434000C9446000C9446000C9446006A
:100010000C9446000C9446000C9446000C94460048
:100020000C9446000C9446000C9446000C94460038
:100030000C9446000C9446000C9446000C94460028
:100040000C9446000C9446000C9448000C94460016
:100050000C9446000C9446000C9446000C94460008
:100060000C9446000C94460011241FBECFEFD8E03C
:10007000DEBFCDBF22E0A0E0B1E001C01D92A03202
:10008000B207E1F70E946D010C9477030C94000015
:100090001F920F920FB60F921124EF92FF920F93BF
:1000A0001F932F933F934F935F936F937F938F9300
:1000B0009F93AF93BF93CF93DF93EF93FF932091E1
:1000C000C60060910401E62FF0E0EB5FFE4F9081E7
:1000D00080910301822720838927809303016F5F2A
:1000E000643808F560930401C62FD0E0FE01EB5F91
:1000F000FE4F9081953511F1FF91EF91DF91CF91F6
:10010000BF91AF919F918F917F916F915F914F912F
:100110003F912F911F910F91FF90EF900F900FBE85
:100120000F901F90189510920401C0E0D0E060E09D
:10013000FE01EB5FFE4F90819535F1F68111DCCF2A
:1001400084E8E82EF12C87010C1B1D0B70E06B5F1F
:100150007E4FA80188E991E00E946E0304381105E2
:1001600099F0C80188569E4F98012F5F3F4F253860
:10017000310590F4A701401B510BB8016C0F7D1F96
:100180006F577F4F0E946E0381E080930201809140
:10019000990180939701B0CF41E050E0EECFFC0190
:1001A000AC01465F5F4F8FEF9FEF21918227082EB2
:1001B0008295807F8025092E982F82958F70082642
:1001C000869598278927880F880F880F8025E41740
:1001D000F50759F708950FB6A4B1209101012A2B14
:1001E00024B921E030910101203029F0000025B12F
:1001F000232B25B904C000000000000000C000004F
:1002000000000000309525B1232325B92EEA2A9558
:10021000F1F72BEE30B735FF0AC0A4B930910101D8
:10022000309525B1232325B90FBE80E00895000045
:100230002A9581F721E030910101203029F000005A
:1002400025B1232B25B904C000000000000000C028
:10025000000000000000309525B1232325B90000DF
:1002600024E52A95F1F7FC018CE0619170E0660FBE
:10027000771F616072609AE041E050E09A012623A6
:100280003723232B30910101203029F0000025B1C4
:10029000232B25B904C000000000000000C00000AE
:1002A00000000000309525B1232325B9000021E589
:1002B0002A95F1F7440F551F9A9501F78A95A9F6EB
:1002C00020B7206120BFA4B930910101309525B13C
:1002D000232325B90FBE81E00895F894219A259A29
:1002E0002D98299880B7806880BF80E8809361004E
:1002F00081E0809361008CE090E09093C500809352
:10030000C4008091C0008D7F8093C0008091C200A6
:1003100086608093C2008091C10088698093C1008B
:10032000789482E0809301010BE811E010938A0138
:100330000093890110931F0200931E0210931D0267
:1003400000931C0285E02D9A2FEF31EE94E02150AE
:1003500030409040E1F700C000002D98EFEFF1EE43
:1003600024E0E150F0402040E1F700C0000081505F
:1003700051F79AE0B92ECC24C39428E0F22E31E84C
:10038000D32E46E0E42E809102018823E1F31092FF
:10039000020180919701833009F453C108F44CC0E5
:1003A000853009F401C108F49AC0863061F7E09104
:1003B0001C02F0911D0280919A018083E0911C0241
:1003C000F0911D0280919B018183E0911C02F091CC
:1003D0001D0280919C01828380919D018383809185
:1003E0009E01848380919F0185838091A0018683F3
:1003F0008091A10187838091A20180878091A301D0
:1004000081878BE891E00E94CF00909396018093C2
:1004100095018BE891E00E94EB002D9A8FE697E121
:100420000197F1F700C000002D98EFE6F7E1319752
:10043000F1F700C00000A7CF813009F4F6C0823088
:1004400009F0A1CFE0911C02F0911D0280919A0168
:100450008083E0911C02F0911D0280919B018183B9
:10046000E0911C02F0911D0280919C018283809199
:100470009D01838380919E01848380919F01858368
:100480008091A00186838091A10187838091A20140
:1004900080878091A30181878BE891E00E94CF0043
:1004A00090939601809395018091020181116BCF09
:1004B0008BE891E00E94EB002D9A8FE697E101977F
:1004C000F1F700C000002D98EFE6F7E13197F1F762
:1004D00000C0000080910201882351F354CFD092D4
:1004E0009401E0918901F0918A0180919A018083C1
:1004F0001086F89480910201811146C0A091890173
:10050000B0918A0111961C9211971296EBE9F1E0D5
:100510008E2D01900D928A95E1F78BE891E00E9473
:10052000CF0090939601809395018BE891E00E9413
:10053000EB0081EA882E81E0982EC6E080910201CE
:10054000811122C0A0918901B0918A018C2F8695DA
:1005500011968C9311971296F4018E2D01900D92A5
:100560008A95E1F78BE891E00E94CF009093960185
:10057000809395018BE891E00E94EB00CA5FF6E062
:100580008F0E911CC438D1F678942D9A8FE19EE499
:100590000197F1F700C000002D98EFE1FEE43197DC
:1005A000F1F700C00000EFCEF8012B2D11922A9533
:1005B000E9F7C0929401F894CAE9D1E0A0911E0233
:1005C000B0911F02FE018F2D01900D928A95E1F7E7
:1005D000E0911E02F0911F0280819181892B79F4B4
:1005E00082819381892B59F484819581892B39F4F7
:1005F0008681811104C087819085892B29F28BE83F
:1006000091E00E94CF0090939601809395018BE832
:1006100091E00E94EB00F5E8FA95F1F700002896CA
:1006200022E0CA31D20751F6AFCF81E090910001AC
:10063000911180E080930001882309F44DC02D9A28
:10064000A2CEE0911C02F0911D0280919A0180835C
:10065000E0911C02F0911D0280919B018183E09149
:100660001C02F0911D0280919C01828380919D016A
:10067000838380919E01848380919F0185838091F3
:10068000A00186838091A10187838091A201808748
:100690008091A30181878091A40182878091A50127
:1006A00083878091020181116ECE8BE891E00E94D8
:1006B000EB002D9A8FE697E10197F1F700C000005B
:1006C0002D98EFE6F7E13197F1F700C00000809137
:1006D0000201882351F357CE2D9855CEFB01DC0142
:1006E00002C001900D9241505040D8F70895F894FF
:0206F000FFCF3A
:00000001FF
